02397500000044126218054083025667ABBV REFRESH TEARS 0.5% GTS 15 ML  00000000000000000002000000000000000
03590600000053217127798084684171ADIU ALPERTAN 160 MG 28 CMPR REC   00000000000000000002000000000000000
04328800000057855527798084685222ADIU ALPERTAN D 160/12.5 MG 28CMP R00000000000000000001000000000000000
06138000000067190027798084686960ADIU BEMPENAL 180 MG 60 CMPR REC   00000000000000000002000000000000000
04001400000056287117798084684713ADIU COLMIBE 10/10 MG 30 CMPR      00000000000000000002000000000000000
04001500000056288417798084684720ADIU COLMIBE 20/10 MG 30 CMPR      00000000000000000001000000000000000
05019300000062711327798084683617ADIU COLMIBE 40/10 MG 30 CMPR      00000000000000000001000000000000000
06062000000067317117798084686892ADIU FANTER 10 MG 30 CMPR          00000000000000000003000000000000000
04378900000056640017798084684942ADIU KIR 28 CMPR REC               00000000000000000001000000000000000
04644700000059944237798084682986ADIU LACOTEM 100 MG 30 CMPR REC    00000000000000000002000000000000000
04227500000057487117798084685093ADIU NABILA  5 MG 28 CMPR          00000000000000000004000000000000000
04631100000059089757798084685307ADIU NOSTER  5/160 MG 28 CMPR      00000000000000000002000000000000000
05177100000063560037798084684850ADIU NOSTER  5/320 MG 28 CMPR      00000000000000000002000000000000000
04912400000062055527798084683310ADIU NOSTER D 160/12.5/ 5MG 28 CMPR00000000000000000002000000000000000
05226100000063520017798084689060ADIU REDUPROST DUO 30 CAPS.DURAS   00000000000000000002000000000000000
03263000000051507917798084682177ADIU ULTRANEURAL 300 MG 30 CMPR    00000000000000000001000000000000000
00000000000052866627792086416532ALCO SYSTANE  FCO GOT 15 ML        00000000000000000003000000000000000
04421600000055577127792086000038ALCO SYSTANE ULTRA SOL OFT 10 ML   00000000000000000001000000000000000
01020700000000388017793742002212ANDR HIPOGLOS CICATRIZ PVO 40 GRS  00000000000000000002000000000000000
00029900000025625737793742001437ANDR MACRIL CR 20 GRS              00000000000000000002000000000000000
03882100000031010227793742002083ANDR NAPRUX 500 MG 50 CMPR         00000000000000000003000000000000000
05012000000039033627793742003097ANDR SALAC CR 30 GRS               00000000000000000001000000000000000
05468100000064782617795349169879ARIS BACLOX 10 MG 60 CMPR          00000000000000000004000000000000000
02923500000049505316091403222209ASFA XALACOM FCO GOT 2.5 ML        00000000000000000001000000000000000
01963400000042274117791824117595ASFA XALATAN 50MCG/ML SOL x 1 x 2.500000000000000000001000000000000000
04983200000062629715000456007955ASTR FORXIGA 10 MG 28 CMPR         00000000000000000002000000000000000
04318000000058304217795302303708ASTR FREVIA 160/4.5 MCG 120 DOSIS  00000000000000000001000000000000000
01536900000001036437790375002152BAGO BAGO B1B6B12  5000MCG 30 CMPR 00000000000000000004000000000000000
05950900000050800557790375269982BAGO CARVEDIL 12.5 MG 60 CMPR      00000000000000000001000000000000000
00573900000048547617790375251567BAGO DIUREX 25 MG 30 CMPR          00000000000000000001000000000000000
05407600000064368417790375004446BAGO FLOGOCOX  90 MG 14 CMPR REC   00000000000000000001000000000000000
02636500000046455327790375251222BAGO GLIOSARTAN 40 MG 28 CMPR      00000000000000000002000000000000000
00345700000030287817790375000776BAGO GLIOTEN 10 MG  30 CMPR        00000000000000000002000000000000000
02047100000040413717790375002213BAGO GLIOTENZIDE 20 MG 30 CMPR     00000000000000000002000000000000000
03372500000049131627790375253318BAGO HUMORAP 40 MG 28 CMPR         00000000000000000001000000000000000
04183200000057012637790375266530BAGO NOVO HUMORAP 20 MG 28 CMPR REC00000000000000000001000000000000000
03332500000052082627790375268626BAGO ROSUVAST 10 MG 28 CMPR        00000000000000000001000000000000000
05951800000052082657790375270094BAGO ROSUVAST 10 MG 30 CMPR        00000000000000000001000000000000000
03148600000027664327790375003074BAGO TRANQUINAL 0.5 MG  30 CMPR    00000000000000000001000000000000000
05132300000050331237795338010038BALI AUDIPAX 16 MG 30 CMPR RANUR   00000000000000000002000000000000000
05052400000063018437795338019802BALI AUDIPAX MULTIDOSIS 24MG 30CMPR00000000000000000002000000000000000
04136600000046640077795338016078BALI AZIBIOTIC 500 7 CMPR REC RAN  00000000000000000002000000000000000
01828500000033987137795338001159BALI BLAVIN 10 MG 30 CMPR          00000000000000000001000000000000000
04970600000062338437795338019925BALI COMIL  50 MG CMPR REC         00000000000000000001000000000000000
04970700000062339737795338019932BALI COMIL 100 MG 30 CMPR REC      00000000000000000002000000000000000
06063000000067183937795338001104BALI DAPAX 10 MG 30 CMPR REC       00000000000000000003000000000000000
03611100000050112937795338015590BALI DORMILAN 10 MG 30 CMPR RAN    00000000000000000001000000000000000
04613200000059506837795338017006BALI EUMOTIL S 30 CMPR REC         00000000000000000002000000000000000
02804800000048433737795338013701BALI ILDUC  5 MG 30 CMPR RAN       00000000000000000001000000000000000
03946200000051618937795338015828BALI ILDUC DUO 5/20 MG 30 CAPS     00000000000000000001000000000000000
05008200000048879367795338018782BALI INSERTEC  50 MG 60 CMPR RAN   00000000000000000002000000000000000
05937900000066584237795338999562BALI MISARTAL 40 MG 30 CMPR        00000000000000000001000000000000000
02357600000044229447795338013428BALI PANTUS 40 MG 30 CMPR GASTRORR 00000000000000000003000000000000000
04388200000057607137795338016399BALI REOVEX 20 MG 30 CMPR REC.RAN  00000000000000000001000000000000000
05801100000064210037795338999418BALI RIXATYL 20 MG 30 CMPR REC     00000000000000000002000000000000000
04457300000057148437795338016757BALI SARVAL 320 MG 30 CMPR REC     00000000000000000001000000000000000
04025900000055526837795338015934BALI SARVAL D  80/12.5MG 30CMPR REC00000000000000000003000000000000000
04026000000055527137795338015941BALI SARVAL D 160/12.5MG 30CMPR REC00000000000000000002000000000000000
04670700000060513917793640002093BAYC ACTRON PED 4% SUS ORAL 100ML  00000000000000000001000000000000000
04150300000056953927793640232261BAYP ASPIRINA PREVENT 50COMP C.ENTE00000000000000000006000000000000000
00831600000009914417795320007718BAYP TESTOVIRON DEPOT 250 MG IM AMP00000000000000000002000000000000000
00127500000029619637792175001052BERN MIOPROPAN T 100/1.5MG 50CMPR  00000000000000000001000000000000000
06204600000099620467792175010627BERN PERPIEL ANTIAGE SERUM 30 ML   00000000000000000001000000000000000
06160200000099616027792175010603BERN PERPIEL EMULS LIMP 200ML      00000000000000000002000000000000000
05845500000099584557792175010085BERN PERPIEL FACIAL A EMULS 80 ML  00000000000000000002000000000000000
02598300000047022927795328052352BETA INMUNOARTRO  20MG 30 CMPR REC 00000000000000000002000000000000000
04418200000052747514048846001665BO.I ATROVENT HFA AEROSOL 10 ML    00000000000000000001000000000000000
04712600000005665427795359000384CABU MUELITA FORTE GEL POMO 10 GRS 00000000000000000001000000000000000
02481700000046574117791909292094CASA AMPLIAR 10 MG 30 CMPR         00000000000000000002000000000000000
06077500000067180047791909119049CASA CRADA 4 CAPS BLANDA           00000000000000000001000000000000000
06427200000057170027791909409447CASA DANLOX RAPIDO 40 MG 30 CAPS   00000000000000000001000000000000000
05985900000061598457791909180063CASA DILCORAN  80 MG 30 CMPR REC   00000000000000000001000000000000000
05986000000061599757791909180223CASA DILCORAN 160 MG 30 CMPR REC   00000000000000000002000000000000000
03617700000052010227791909330796CASA EURETICO  50 MG 30 CMPR       00000000000000000001000000000000000
03921700000051431937791909103659CASA FACTOR AE  CR 200 GRS         00000000000000000003000000000000000
03922000000051432437791909103826CASA FACTOR AE  EMULS 400 ML       00000000000000000002000000000000000
00194900000026275917791909106568CASA FACTOR AG 200 MG 20 CMPR      00000000000000000002000000000000000
04167100000057410017791909213914CASA INHALAN SPRAY NASAL  60 DS    00000000000000000002000000000000000
05491000000065148427791909222305CASA ISET RESP 500/60 MG 16 CMPR   00000000000000000001000000000000000
02371700000043796417791909214430CASA LOPLAC D  50MG/12.5MG 30 CMPR 00000000000000000001000000000000000
01288400000036747617791909224460CASA PELMEC 10 MG 30 CMPR          00000000000000000002000000000000000
05985500000058705547791909339065CASA ROSTRUM 100 MG 60 CMPR        00000000000000000001000000000000000
05985600000058706847791909339126CASA ROSTRUM 200 MG 60 CMPR        00000000000000000002000000000000000
05047400000058568427791909196521CASA SEGREN 200 MG 30 CAPS         00000000000000000001000000000000000
05995500000065220027791909340207CASA SUPRITOS JBE 200 ML           00000000000000000001000000000000000
04835600000061538417791909200433CASA TOFLUX 600 MG 10 SOB          00000000000000000002000000000000000
04835700000061538427791909200457CASA TOFLUX 600 MG 20 SOB          00000000000000000001000000000000000
04524900000020213537791909201256CASA VACUNACE 30 SOB.              00000000000000000002000000000000000
04969200000062502657791909422248CASA VELDEX 50 MG 30 CMPR          00000000000000000001000000000000000
04079100000056841347791909123053CASA ZOXX  50 MG 30 CMPR REC       00000000000000000002000000000000000
05649600000064730027795373002173CASS AXNE 0.1% GEL 30 G            00000000000000000002000000000000000
05094800000040293367795373011816CASS EUMICEL COLAGENO 2% SH 120 ML 00000000000000000002000000000000000
04563600000052103117795373017627CASS FLUTICORT   50 MCG SPR NAS  6000000000000000000002000000000000000
02306400000042285827795373013780CASS FUSIMED B EMUL 50 GRS         00000000000000000002000000000000000
02436200000042285817795373013773CASS FUSIMED B OTONASAL EMUL 15 GR 00000000000000000002000000000000000
04625700000060222657795373001800CASS ITRAC 200 14 CAPS             00000000000000000001000000000000000
02646800000099264687795373012028CASS LACTIDERM EMUL 50 GRS         00000000000000000001000000000000000
05303800000057014247795373019768CASS MODULCASS 5% CR.DERM 10 G     00000000000000000001000000000000000
04648100000040173717795373012967CASS NEOQUIN FTE CR 20 GRS         00000000000000000001000000000000000
04593500000059626827795373012912CASS NEUMOCORT HFA 200MCG AER 200DS00000000000000000001000000000000000
04176900000056971317792234892379CRAV TRYPTALGIN 10 MG 30 CMPR REC  00000000000000000001000000000000000
04177100000056973937792234892393CRAV TRYPTALGIN 75 MG 30 CMPR REC  00000000000000000001000000000000000
00000000000002261647791519701085DDS  PRIME U/FIN X12 PRE           00000000000000000003000000000000000
01110800000033141327795327061195DOMI 5-ASA  400 MG  30 SUP         00000000000000000001000000000000000
01623200000039784527795327060099DOMI ACIFOL  5 5 MG 60 CMPR        00000000000000000002000000000000000
06417200000099641727796285285968ELEA AZIATOP ADVANCE 20 MG 28 CAPS 00000000000000000002000000000000000
03324600000047373617791848216007ELEA CLAVULOX 1 GR 14 CMPR         00000000000000000001000000000000000
01147900000034978927791848270504ELEA ESCLEROVITAN E  50 CAPS       00000000000000000001000000000000000
02170300000042994517796285271022ELEA EUTHYROX  75 MCG 50 CMPR BIRRA00000000000000000002000000000000000
04113600000054594227796285052348ELEA FEMOREL 150 MG 3 CMPR         00000000000000000001000000000000000
05402100000064603917796285280345ELEA FLENOMID XR 100MG 30CAPS.LI.PR00000000000000000001000000000000000
06454000000099645407796285297107ELEA GENIOL FLEX 10 CMPR           00000000000000000002000000000000000
06143900000099614397796285290207ELEA HEPATALGINA 9 HIERBAS GTS 50ML00000000000000000002000000000000000
00647400000000821017791848205018ELEA HOLOMAGNESIO  50 CMPR REC     00000000000000000001000000000000000
03233500000051349117796285050702ELEA LAMIRAX 100 MG 30 CMPR DISP   00000000000000000002000000000000000
05017100000051349127796285275624ELEA LAMIRAX 100 MG 60 CMPR DISP   00000000000000000002000000000000000
05314500000064169717796285279622ELEA LEVAL  5 MG 30 CMPR           00000000000000000002000000000000000
05856000000065986817796285282882ELEA LINUS DUO 0.5/0.4 MG 30 CAPS  00000000000000000003000000000000000
05797400000066183917796285283421ELEA LIPEX PLUS 10/10 30 CMPR      00000000000000000001000000000000000
05325700000024593737796285278861ELEA MYLANTA II  LIQ 160 ML        00000000000000000001000000000000000
01725000000033583737791848270511ELEA NETUNAL FCO 200 ML            00000000000000000001000000000000000
02867500000049031827791848281029ELEA NEUMOTEROL 200 120 CAPS+APLIC 00000000000000000002000000000000000
05793800000066361317796285283469ELEA NEUMOTEROL AERO 160/4.5 120DS 00000000000000000003000000000000000
05927400000066515527796285285449ELEA RISTONEL 100 MG 60 CMPR REC   00000000000000000001000000000000000
05314900000063170017796285279615ELEA SULOS 0.4 MG 30 CAPS          00000000000000000003000000000000000
05809300000066089727796285283346ELEA TESTRI CB 100.000 UI 3 CAPS   00000000000000000001000000000000000
02838600000047586517796285297800ELEA TRASTOCIR 100 MG 30 CMPR      00000000000000000001000000000000000
00674100000000851937796285286644ELPH ADERMICINA   CR 30 GRS        00000000000000000002000000000000000
05649100000099564917796285284503ELPH CONTRACTIL 30 CAPS            00000000000000000001000000000000000
03485900000041759437796285051563ELPH CRONOPEN 500 MG  6 CMPR REC   00000000000000000002000000000000000
05100600000099510067796285286903ELPH HEPATALGINA GTS  45 ML        00000000000000000002000000000000000
00446500000028880417792690023034ELPH PONSTIL FTE  30 CMPR          00000000000000000001000000000000000
06186100000099618617792981070389ENA  MAGNESIO CITRATO 60 CAPS      00000000000000000001000000000000000
00797700000004993317798016922869EUFA HIDROTISONA 10 MG 30 CMPR     00000000000000000002000000000000000
02752000000046754917798016920483EUFA URZAC 300 MG 30 CMPR          00000000000000000001000000000000000
04003600000056506817798122340366EURB UROFURAN 100 MG 30 CAPS      #00000000000000000001000000000000000
00353100000004890117798006300066FECO BIDEON SOL 10 ML              00000000000000000001000000000000000
04684900000054092637791171000335FINA CALMADOR PLUS 30 CMPR REC     00000000000000000002000000000000000
03091600000043616427791171002346FINA LIPAREX 10 MG 30 CMPR REC     00000000000000000001000000000000000
02342700000002956357791171100592FINA PAUSAFREN T 40 CMPR           00000000000000000001000000000000000
03780800000054650027791171101315FINA TANSILOPROST 0.4 MG 30 CAPS   00000000000000000002000000000000000
05013800000062111317791171000625FINA TANSILOPROST DUO 0.5/0.4MG 30C00000000000000000001000000000000000
03669700000053847127794428011771FORT MENIEX 24 MG 30 CMPR          00000000000000000001000000000000000
06417300000099641737798008191693FRAM AMPK CREATINA HCL ORIG 60 CAPS00000000000000000001000000000000000
05435400000099543547798161990416FRAN RESVERATROL FRANC 30 CMPR     00000000000000000001000000000000000
03553500000033461577792183488326GADO ALLOPURINOL GADOR 100MG 30CMPR00000000000000000001000000000000000
03553700000033462377792183488340GADO ALLOPURINOL GADOR 300MG  30CMP00000000000000000001000000000000000
00995400000032138177792183180954GADO ALPLAX 1 MG 60 CMPR           00000000000000000003000000000000000
05828000000066105517792183490060GADO ATUREN 1000 MG 30 CMPR REC    00000000000000000001000000000000000
05016700000003508177792183001471GADO BILETAN ENZIMAT 30 CMPR REC   00000000000000000001000000000000000
01271800000031399017792183100884GADO CORTIPYREN B  8 MG 20 CMPR   #00000000000000000002000000000000000
06236500000067759717792183490831GADO DESTELLE 28 CMPR REC          00000000000000000001000000000000000
03463600000048789457792183488098GADO FILTEN  6.25 MG 30 CMPR RAN   00000000000000000002000000000000000
03463900000048790167792183488067GADO FILTEN 12.5 MG 60 CMPR RAN    00000000000000000002000000000000000
05032500000058485557792183001563GADO FILTEN LP 40 MG 30 CAPS LIB.PR00000000000000000002000000000000000
04647400000059622637792183000719GADO GADOLIP 135 MG 30 CAPS        00000000000000000002000000000000000
02813500000043767547792183487251GADO LERCADIP 10 MG 30 CMPR REC    00000000000000000002000000000000000
04898200000040995517792183488180GADO PAXON D  50/12.5MG 30 CMPR REC00000000000000000002000000000000000
05132500000052893537792183002003GADO PAXON D 100/25 MG 30 CMPR REC 00000000000000000002000000000000000
03401100000052347467792183487541GADO SINLIP 20 MG 30 CMPR REC      00000000000000000003000000000000000
06050400000067216817792183490473GADO SINLIP EZ 20/10 MG 30 CMPR REC00000000000000000001000000000000000
01198400000035807937792183186376GADO SOMIT 10 MG 30 CMPR           00000000000000000006000000000000000
00501500000099050157792183000023GADO SQUAM POMO  80 GRS            00000000000000000001000000000000000
04996800000099499687798140250616GENO BENGUE SIN OLOR GEL 35 GRS    00000000000000000001000000000000000
06296800000099629687798420160581GENO IBU 400 400MG BLIST 10 CMPR   00000000000000000002000000000000000
05448900000099544897798140253099GENO LOMECAN OVULOS OV 3           00000000000000000001000000000000000
02998300000049967527798140251118GENO TAFIROL 1GR 50 CMPR RAN       00000000000000000004000000000000000
06131300000099613137798140257998GENO TAFIROL DUO 10 CMPR BL        00000000000000000002000000000000000
05262300000099526237794640171208GLAX IBU EVANOL MAX R.ACC 10CAP BL 00000000000000000002000000000000000
01300100000017109117798365531170GLAX VENTOLIN HFA AER.INH 200 DS+AP00000000000000000002000000000000000
00135200000010663427798029233761JOHN DRAMAMINE 12 CMPR             00000000000000000001000000000000000
05152800000099515287791984001680LAGR ATOMO DESINF.CLAS POTE 220GR  00000000000000000002000000000000000
02254800000029512217795347905158LAZA ATARAXONE 50 MG 20 CMPR REC   00000000000000000001000000000000000
05078700000050870827795347939184LAZA MUPAX NASAL 2% UNG 5 GRS      00000000000000000001000000000000000
05934700000051105757795347954484LAZA SIMULTAN  80 MG 30 CMPR REC   00000000000000000002000000000000000
03180400000050787527795373010376LERS DERMEXANE  CR 30 GRS          00000000000000000001000000000000000
03737200000051125027795373015722MESO SALICORT UNG DERM 30 GRS      00000000000000000001000000000000000
01191800000033678617795378000532MONT CRONOCORTEROID INY AMP 2 ML   00000000000000000002000000000000000
04608000000059720017795378004745MONT DBI AP 500  30 CMPR           00000000000000000001000000000000000
01290900000036750917795378000587MONT DBI AP METFORMINA  30 CMPR REC00000000000000000001000000000000000
06042100000061114217795378006312MONT DIAPRESAN 320 MG 30 CMPR REC  00000000000000000001000000000000000
05520900000065192617795378005735MONT DIAPRESAN A 160/ 5MG 30CMPR RE00000000000000000001000000000000000
05521000000065190017795378005742MONT DIAPRESAN A 160/10MG 30CMPR RE00000000000000000001000000000000000
00000000000066033917795378006176MONT DIAPRESAN TRP 160/12.5/10 30CM00000000000000000002000000000000000
05737100000066032617795378006169MONT DIAPRESAN TRP 160/12.5/5  30CM00000000000000000001000000000000000
04702700000043368137795378001034MONT GLEMAZ 4MG 60 CMPR TRIRRAN    00000000000000000003000000000000000
01999300000040379117795378001690MONT HISTAMINO CORTEROID L 10 CMPR 00000000000000000001000000000000000
00577500000026456537795378000747MONT IM75 CR 100 GRS               00000000000000000001000000000000000
01393000000037400917795378001454MONT MIGRAL II 20 CMPR             00000000000000000001000000000000000
00419700000001097627795378001126MONT MODATON 5 MG 50 CMPR REC      00000000000000000001000000000000000
05572500000065187127795378005834MONT NUBIBRON 30 CAPS              00000000000000000001000000000000000
04751200000061081317795378001225MONT OSTEODYN SOL ORAL 2 ML        00000000000000000003000000000000000
05373300000063986817795378005445MONT PRIOTIC 600 MG 30 CMPR        00000000000000000002000000000000000
04664800000060750017795378000884MONT RENTOP 150 MG 1 CMPR REC      00000000000000000001000000000000000
05214700000063162617795378005353MONT SERUBEL 135 MG 30 CAPS.LIB.PR 00000000000000000002000000000000000
03984500000048973317795378003724MONT T4  88  88 MCG  50 CMPR       00000000000000000006000000000000000
01191900000033676017795378001324MONT T4 100 100 MCG  50 CMPR       00000000000000000001000000000000000
03984600000051436617795378003731MONT T4 112 112 MCG  50 CMPR       00000000000000000003000000000000000
03984800000051439217795378003755MONT T4 175 175 MCG  50 CMPR       00000000000000000001000000000000000
04993800000062323967795345123622N.AR PLENAIR 10 MG 30 CMPR REC     00000000000000000001000000000000000
05949900000099594993664798040586OPHE BISOLVON NF ADU JBE 125ML     00000000000000000001000000000000000
04110700000003777217798389330124OPHE NOVALGINA   10 CMPR          #00000000000000000001000000000000000
03348300000031031847798376720419ORGA QUADRIDERM  CR 10 GRS (A/MICO)00000000000000000001000000000000000
03348400000031031857798376720402ORGA QUADRIDERM  CR 20 GRS (A/MICO)00000000000000000001000000000000000
06353900000099635397798051855313PANA PANADERM B5 CR 100 GRS        00000000000000000001000000000000000
04685100000099468517798051851940PANA PROAVENAL SHAMPOO 300 ML      00000000000000000001000000000000000
05959500000099595957798051854057PANA REVERSAL 1000 90 CMPR REC     00000000000000000001000000000000000
04814600000048845427798051852152PANA RIBATRA 0.05% CR 50 GRS       00000000000000000001000000000000000
03344800000051518627798051850714PANA SUPRALER 5 MG 30 CMPR         00000000000000000001000000000000000
01871900000010671737791824116147PFIZ ALDACTONE A  25 MG 30 CMPR    00000000000000000001000000000000000
05225500000099522557795381001779PFIZ IBUPIRAC 400 MG  12 CMPR      00000000000000000001000000000000000
05000600000062741317795381001250PFIZ IBUPIRAC 600 MG 10 CAPS BLAN  00000000000000000001000000000000000
02821000000020702857795381001083PFIZ TRAPAX 2.5 MG  60 CMPR        00000000000000000002000000000000000
03956200000054327117795368055122POEN AUCIC 1% SOL OFT 10 ML        00000000000000000002000000000000000
02486800000046461017795368001556POEN BRIMOPRESS OFT FCO GOT 5 ML   00000000000000000001000000000000000
02508600000046666617795368001594POEN GLAUCOTENSIL TD COLIR 5 ML    00000000000000000002000000000000000
05096900000099509697795368001419POEN GOTA PC DESCONG BAĄO OCUL 80ML00000000000000000002000000000000000
05345700000064162617795368002942POEN LOUTEN EMULS 2.5 ML           00000000000000000003000000000000000
04071900000008732127791763337931RAYM TANVIMIL B1 B6 B12 30 CMPR REC00000000000000000001000000000000000
05398600000099539864015630066841RODI ACCU-CHEK GUIDE 50 TIRAS REACT00000000000000000003000000000000000
00757800000028287227795345001968ROEM ACALIX AP 120 MG 30 CAPS      00000000000000000001000000000000000
02974100000049630367795345011349ROEM CORBIS  2.5 MG 30 CMPR REC    00000000000000000002000000000000000
02541600000046763067795345010830ROEM CORBIS  5 MG 30 CMPR REC      00000000000000000002000000000000000
05896700000046764887795345122830ROEM CORBIS 10 MG 60 CMPR REC      00000000000000000001000000000000000
05268400000062197167795345002712ROEM CORPRES  2.5 MG 30 CMPR       00000000000000000001000000000000000
04825400000059672647795345121215ROEM DEXOPRAL 60 30 CAPS           00000000000000000002000000000000000
00836900000010031387795356922207ROEM FLEXICAMIN B12 20 CMPR        00000000000000000003000000000000000
04047000000056537137795345120386ROEM FRENALER CORT 10 CMPR REC     00000000000000000001000000000000000
03881300000055057147795345013626ROEM INDUCTAL 2 MG 30 CMPR REC     00000000000000000001000000000000000
01598700000039646737795345009636ROEM LOSACOR  50 MG 30 CMPR REC    00000000000000000001000000000000000
05896300000063054227795345122885ROEM LOSACOR A 5/ 50 MG 60 CMPR REC00000000000000000002000000000000000
01668100000040240437795345001999ROEM LOSACOR D  50/12.5 MG 30 CMPR 00000000000000000001000000000000000
03495600000032809847795345012773ROEM LOTRIAL  2.5 MG 60 CMPR       00000000000000000001000000000000000
03495800000028446447795345012780ROEM LOTRIAL  5 MG  60 CMPR        00000000000000000002000000000000000
03495900000028447227795345011608ROEM LOTRIAL 10 MG  30 CMPR       #00000000000000000002000000000000000
02709600000008891537795345120966ROEM MESTINON 60 MG 100 CMPR       00000000000000000001000000000000000
03167600000038046057795345011844ROEM OPTAMOX DUO 1 GR 14 CMPR      00000000000000000002000000000000000
00788800000028309417795345125329ROEM POVIRAL CR DERM 5 GRS         00000000000000000001000000000000000
05494400000052097557795345121703ROEM ROVARTAL 40 MG 30 CMPR REC    00000000000000000002000000000000000
02348100000041771827795356000936ROEM TRITAB 500 MG 5 CMPR REC      00000000000000000001000000000000000
03306900000041771837795356998967ROEM TRITAB 500 MG 6 CMPR REC      00000000000000000002000000000000000
04297700000057504217795384000458SERV COVERENE 10 MG 30 CMPR        00000000000000000003000000000000000
00539800000025884917795356977801SIDU PROFLAX 0.50% GTS OFT 5 ML    00000000000000000001000000000000000
02967600000048373517798129416781SIEG ACEMUK JARABE JBE 100 ML      00000000000000000001000000000000000
01776400000040910327798129414879SIEG CALCIO BASE DUPOMAR D 60 CMPR 00000000000000000001000000000000000
00537100000022919717795356911607SIEG DECADRON  SHOCK F/A 5 ML      00000000000000000002000000000000000
01832200000009682737798129415104SIEG VALIUM 10 MG 30 CMPR          00000000000000000001000000000000000
01122100000022408037795375579000SOUB PLATSUL-A CR  30 GRS          00000000000000000004000000000000000
02006300000022408047795375000238SOUB PLATSUL-A CR 200 GRS          00000000000000000002000000000000000
04873500000026917747795337903683TEMI TRESITE F POMO 40 G           00000000000000000002000000000000000
04650200000052140017795326000331TEVA ARTOMEY 20 MG 30 CMPR         00000000000000000001000000000000000
01554400000039293627795326191336TEVA AURENE 600 MG 60 CMPR         00000000000000000001000000000000000
04293400000058051317795326005787TEVA AXUAL 150 MG 30 CAPS          00000000000000000001000000000000000
02727100000040497127795326000355TEVA COLPOTROPHINE 20 CAPS VAG     00000000000000000002000000000000000
00866600000008810527795350021302TEVA DEXALERGIN 20 CMPR REC        00000000000000000002000000000000000
02657800000047781117795326000065TEVA FILARTROS  20 MG 30 CMPR REC  00000000000000000002000000000000000
02838400000048394117795326000225TEVA MINUSLIP 200 MG 30 CAPS       00000000000000000002000000000000000
05918100000021899227795326010859TEVA TAXAGON AD 100 MG 30 CMPR     00000000000000000004000000000000000
02615600000046884447795371458408TRB  ARTRAIT 10 MG 10 CMPR RAN     00000000000000000002000000000000000
03811100000054883917795371459047TRB  ARTRAIT 15 MG  4 CMPR RAN     00000000000000000001000000000000000
01853300000041969927795371000249TRB  CALCIOCIT 60 TAB              00000000000000000001000000000000000
05326500000064049727795371001208TRB  ORAVIL CB 1 CAPS.BL           00000000000000000001000000000000000
04495000000058973917795371000416TRB  ORAVIL F/A BEB. 2 ML          00000000000000000002000000000000000
